{
  "_format": "hh-sol-artifact-1",
  "contractName": "ProofVerifier",
  "sourceName": "contracts/ProofVerifier.sol",
  "abi": [
    {
      "inputs": [
        {
          "internalType": "address",
          "name": "_auditorRegistry",
          "type": "address"
        },
        {
          "internalType": "address",
          "name": "_zkVerifier",
          "type": "address"
        }
      ],
      "stateMutability": "nonpayable",
      "type": "constructor"
    },
    {
      "anonymous": false,
      "inputs": [
        {
          "indexed": true,
          "internalType": "address",
          "name": "project",
          "type": "address"
        },
        {
          "indexed": true,
          "internalType": "address",
          "name": "auditor",
          "type": "address"
        },
        {
          "indexed": false,
          "internalType": "string",
          "name": "status",
          "type": "string"
        },
        {
          "indexed": false,
          "internalType": "uint256",
          "name": "timestamp",
          "type": "uint256"
        }
      ],
      "name": "AuditVerified",
      "type": "event"
    },
    {
      "anonymous": false,
      "inputs": [
        {
          "indexed": true,
          "internalType": "bytes32",
          "name": "id",
          "type": "bytes32"
        },
        {
          "indexed": true,
          "internalType": "address",
          "name": "issuer",
          "type": "address"
        },
        {
          "indexed": false,
          "internalType": "bytes32",
          "name": "summaryHash",
          "type": "bytes32"
        },
        {
          "indexed": false,
          "internalType": "uint256",
          "name": "timestamp",
          "type": "uint256"
        }
      ],
      "name": "CredentialAnchored",
      "type": "event"
    },
    {
      "anonymous": false,
      "inputs": [
        {
          "indexed": true,
          "internalType": "bytes32",
          "name": "id",
          "type": "bytes32"
        },
        {
          "indexed": true,
          "internalType": "address",
          "name": "issuer",
          "type": "address"
        },
        {
          "indexed": true,
          "internalType": "address",
          "name": "subject",
          "type": "address"
        },
        {
          "indexed": false,
          "internalType": "bytes32",
          "name": "summaryHash",
          "type": "bytes32"
        },
        {
          "indexed": false,
          "internalType": "uint256",
          "name": "timestamp",
          "type": "uint256"
        }
      ],
      "name": "CredentialIssued",
      "type": "event"
    },
    {
      "anonymous": false,
      "inputs": [
        {
          "indexed": true,
          "internalType": "bytes32",
          "name": "proofId",
          "type": "bytes32"
        },
        {
          "indexed": true,
          "internalType": "bytes32",
          "name": "credentialId",
          "type": "bytes32"
        },
        {
          "indexed": true,
          "internalType": "address",
          "name": "project",
          "type": "address"
        },
        {
          "indexed": false,
          "internalType": "address",
          "name": "auditor",
          "type": "address"
        },
        {
          "indexed": false,
          "internalType": "bytes32",
          "name": "summaryHash",
          "type": "bytes32"
        },
        {
          "indexed": false,
          "internalType": "uint256",
          "name": "timestamp",
          "type": "uint256"
        }
      ],
      "name": "ProofValidated",
      "type": "event"
    },
    {
      "inputs": [
        {
          "internalType": "bytes32",
          "name": "id",
          "type": "bytes32"
        },
        {
          "internalType": "bytes32",
          "name": "summaryHash",
          "type": "bytes32"
        },
        {
          "internalType": "address",
          "name": "issuer",
          "type": "address"
        }
      ],
      "name": "anchorCredential",
      "outputs": [],
      "stateMutability": "nonpayable",
      "type": "function"
    },
    {
      "inputs": [],
      "name": "auditorRegistry",
      "outputs": [
        {
          "internalType": "contract IAuditorRegistry",
          "name": "",
          "type": "address"
        }
      ],
      "stateMutability": "view",
      "type": "function"
    },
    {
      "inputs": [
        {
          "internalType": "bytes32",
          "name": "",
          "type": "bytes32"
        }
      ],
      "name": "credentialAnchored",
      "outputs": [
        {
          "internalType": "bool",
          "name": "",
          "type": "bool"
        }
      ],
      "stateMutability": "view",
      "type": "function"
    },
    {
      "inputs": [
        {
          "internalType": "bytes32",
          "name": "",
          "type": "bytes32"
        }
      ],
      "name": "credentials",
      "outputs": [
        {
          "internalType": "bytes32",
          "name": "id",
          "type": "bytes32"
        },
        {
          "internalType": "address",
          "name": "issuer",
          "type": "address"
        },
        {
          "internalType": "bytes32",
          "name": "summaryHash",
          "type": "bytes32"
        },
        {
          "internalType": "uint256",
          "name": "timestamp",
          "type": "uint256"
        },
        {
          "internalType": "bytes",
          "name": "signature",
          "type": "bytes"
        }
      ],
      "stateMutability": "view",
      "type": "function"
    },
    {
      "inputs": [
        {
          "internalType": "address",
          "name": "project",
          "type": "address"
        }
      ],
      "name": "getAuditor",
      "outputs": [
        {
          "internalType": "address",
          "name": "",
          "type": "address"
        }
      ],
      "stateMutability": "view",
      "type": "function"
    },
    {
      "inputs": [
        {
          "internalType": "bytes32",
          "name": "id",
          "type": "bytes32"
        }
      ],
      "name": "getCredential",
      "outputs": [
        {
          "components": [
            {
              "internalType": "bytes32",
              "name": "id",
              "type": "bytes32"
            },
            {
              "internalType": "address",
              "name": "issuer",
              "type": "address"
            },
            {
              "internalType": "bytes32",
              "name": "summaryHash",
              "type": "bytes32"
            },
            {
              "internalType": "uint256",
              "name": "timestamp",
              "type": "uint256"
            },
            {
              "internalType": "bytes",
              "name": "signature",
              "type": "bytes"
            }
          ],
          "internalType": "struct ProofVerifier.CredentialData",
          "name": "",
          "type": "tuple"
        }
      ],
      "stateMutability": "view",
      "type": "function"
    },
    {
      "inputs": [
        {
          "internalType": "bytes32",
          "name": "id",
          "type": "bytes32"
        }
      ],
      "name": "isCredentialAnchored",
      "outputs": [
        {
          "internalType": "bool",
          "name": "",
          "type": "bool"
        }
      ],
      "stateMutability": "view",
      "type": "function"
    },
    {
      "inputs": [
        {
          "internalType": "address",
          "name": "project",
          "type": "address"
        }
      ],
      "name": "isVerified",
      "outputs": [
        {
          "internalType": "bool",
          "name": "",
          "type": "bool"
        }
      ],
      "stateMutability": "view",
      "type": "function"
    },
    {
      "inputs": [
        {
          "internalType": "bytes32",
          "name": "id",
          "type": "bytes32"
        },
        {
          "internalType": "address",
          "name": "subject",
          "type": "address"
        },
        {
          "internalType": "bytes32",
          "name": "summaryHash",
          "type": "bytes32"
        },
        {
          "internalType": "bytes",
          "name": "signature",
          "type": "bytes"
        }
      ],
      "name": "issueCredential",
      "outputs": [],
      "stateMutability": "nonpayable",
      "type": "function"
    },
    {
      "inputs": [
        {
          "internalType": "address",
          "name": "",
          "type": "address"
        }
      ],
      "name": "projectAuditor",
      "outputs": [
        {
          "internalType": "address",
          "name": "",
          "type": "address"
        }
      ],
      "stateMutability": "view",
      "type": "function"
    },
    {
      "inputs": [
        {
          "internalType": "bytes32",
          "name": "",
          "type": "bytes32"
        }
      ],
      "name": "proofRecords",
      "outputs": [
        {
          "internalType": "address",
          "name": "project",
          "type": "address"
        },
        {
          "internalType": "address",
          "name": "auditor",
          "type": "address"
        },
        {
          "internalType": "bytes32",
          "name": "summaryHash",
          "type": "bytes32"
        },
        {
          "internalType": "uint256",
          "name": "timestamp",
          "type": "uint256"
        }
      ],
      "stateMutability": "view",
      "type": "function"
    },
    {
      "inputs": [
        {
          "internalType": "bytes32",
          "name": "",
          "type": "bytes32"
        }
      ],
      "name": "proofValidated",
      "outputs": [
        {
          "internalType": "bool",
          "name": "",
          "type": "bool"
        }
      ],
      "stateMutability": "view",
      "type": "function"
    },
    {
      "inputs": [
        {
          "internalType": "address",
          "name": "project",
          "type": "address"
        },
        {
          "internalType": "address",
          "name": "auditor",
          "type": "address"
        },
        {
          "internalType": "string",
          "name": "status",
          "type": "string"
        },
        {
          "internalType": "bytes32",
          "name": "credentialId",
          "type": "bytes32"
        },
        {
          "internalType": "bytes32",
          "name": "proofId",
          "type": "bytes32"
        },
        {
          "internalType": "bytes",
          "name": "proof",
          "type": "bytes"
        },
        {
          "internalType": "uint256[]",
          "name": "publicInputs",
          "type": "uint256[]"
        },
        {
          "internalType": "bytes",
          "name": "proofSignature",
          "type": "bytes"
        }
      ],
      "name": "recordVerification",
      "outputs": [],
      "stateMutability": "nonpayable",
      "type": "function"
    },
    {
      "inputs": [
        {
          "internalType": "address",
          "name": "_auditorRegistry",
          "type": "address"
        }
      ],
      "name": "setAuditorRegistry",
      "outputs": [],
      "stateMutability": "nonpayable",
      "type": "function"
    },
    {
      "inputs": [
        {
          "internalType": "address",
          "name": "_zkVerifier",
          "type": "address"
        }
      ],
      "name": "setZKVerifier",
      "outputs": [],
      "stateMutability": "nonpayable",
      "type": "function"
    },
    {
      "inputs": [
        {
          "internalType": "address",
          "name": "",
          "type": "address"
        }
      ],
      "name": "verified",
      "outputs": [
        {
          "internalType": "bool",
          "name": "",
          "type": "bool"
        }
      ],
      "stateMutability": "view",
      "type": "function"
    },
    {
      "inputs": [],
      "name": "zkVerifier",
      "outputs": [
        {
          "internalType": "contract IZKVerifier",
          "name": "",
          "type": "address"
        }
      ],
      "stateMutability": "view",
      "type": "function"
    }
  ],
  "bytecode": "0x608034620000a357601f6200187838819003918201601f19168301916001600160401b03831184841017620000a8578084926040948552833981010312620000a3576200005a60206200005283620000be565b9201620000be565b600080546001600160a01b03199081166001600160a01b03948516179091559116908162000093575b6040516117a49081620000d48239f35b6001541617600155388062000083565b600080fd5b634e487b7160e01b600052604160045260246000fd5b51906001600160a01b0382168203620000a35756fe608080604052600436101561001357600080fd5b600090813560e01c9081630db065f4146113e057508063299d03481461136d5780632b2badb314610aa05780633c2ad8b614610b7357806345442f7114610adc5780637a8d29ab14610aa05780637baf1e72146104eb5780637e17c1e114610a485780639fd2b9431461051a578063a4fbf7a5146104eb578063b9209e33146104ac578063c509034614610411578063c8028bee146103ea578063c9f8f6f714610207578063d1330a3b146101d8578063d1be4883146101075763d6df096d146100dc57600080fd5b346101045780600319360112610104576001546040516001600160a01b039091168152602090f35b80fd5b503461010457602090816003193601126101045760409060606080835161012d81611482565b8381528386820152838582015283838201520152600435815260068352206101d46040519161015b83611482565b8054835260018060a01b039081600182015416918585019283526002820154906040860191825261019a600460038501549460608901958652016114ea565b93608087019485526040519788978189525190880152511660408601525160608501525160808401525160a08084015260c0830190611590565b0390f35b50346101045760203660031901126101045760ff60406020926004358152600484522054166040519015158152f35b5034610104576060366003190112610104576044356001600160a01b038181169160043591602435918490036103e557610242841515611662565b8085541680158015610376575b6102599150611616565b828552600360205260ff60408620541661033157849061027a8415156116a0565b6102858315156116e4565b838252600360205260408220805460ff19166001179055815416806102da575b505060407f5e79aef9114ebb73334f1d64e889dca8fe3fc8671f30567af77f734290a2d7a8918151908152426020820152a380f35b803b1561032d57818091602460405180948193634afd745560e01b83528a60048401525af1801561032257156102a557610313906114b4565b61031e5783386102a5565b8380fd5b6040513d84823e3d90fd5b5080fd5b60405162461bcd60e51b815260206004820152601b60248201527f43726564656e7469616c20616c726561647920616e63686f72656400000000006044820152606490fd5b506020602491604051928380926328e40a8d60e11b82523360048301525afa80156103da576102599187916103ac575b5061024f565b6103cd915060203d81116103d3575b6103c581836114c8565b8101906115fe565b386103a6565b503d6103bb565b6040513d88823e3d90fd5b600080fd5b5034610104578060031936011261010457546040516001600160a01b039091168152602090f35b50346101045760203660031901126101045761042b61141c565b81546001600160a01b0391908216331480156104a3575b1561045e57166001600160601b0360a01b600154161760015580f35b60405162461bcd60e51b815260206004820152601c60248201527f556e617574686f72697a656420766572696669657220757064617465000000006044820152606490fd5b50303314610442565b50346101045760203660031901126101045760209060ff906040906001600160a01b036104d761141c565b168152600284522054166040519015158152f35b50346101045760203660031901126101045760ff60406020926004358152600384522054166040519015158152f35b503461010457608036600319011261010457600435610537611432565b906044359067ffffffffffffffff606435818111610a445761055d9036906004016115d0565b8654919590926001600160a01b03928316801580156109f0575b6105819150611616565b82821696610590881515611662565b8589526020946003865260ff60408b2054166109ab576105b18715156116a0565b6105bc8815156116e4565b6041810361096657604051868101948886526001600160601b03199060601b1660408201528860548201526054815260808101948186108587111761095257856040528151902060a08201907f19457468657265756d205369676e6564204d6573736167653a0a333200000000825260bc830152603c865260e08201958087108688111761093e578660405251902060408401358c1a601b811061091e575b60ff91875216610100820152823561012082015261014087840135910152898052858a6080600196875afa1561091357848a51163381149081610909575b50156108d05789929160049189604051926106b384611482565b8a845260406106d78b86019233845282870194855260608701954287523691611727565b97608086019889528c815260068c522093518455888885019151166001600160601b0360a01b82541617905551600283015551600382015501915180519182116108bc5790829161072b8b96959454611448565b601f811161086a575b508690601f831160011461080757869190836107fc575b5050600019600383901b1c191690831b1790555b84835260038452604083209060ff19825416179055815416806107b3575b505060405192835242908301527f5a48e710db944aa9bc28f4b9023ac791581696393867b1928fe113ad4d1aa4da60403393a480f35b803b1561032d578190602460405180948193634afd745560e01b83523360048401525af180156103da576107e9575b859061077d565b6107f5909591956114b4565b93386107e2565b01519050388061074b565b8387528787209190601f198416885b8a828210610853575050908487959493921061083a575b505050811b01905561075f565b015160001960f88460031b161c1916905538808061082d565b8484015186558f9a50948801949384019301610816565b9091928094959652868b20601f840160051c8101918885106108b2575b90601f8d989796959493920160051c01905b8181106108a65750610734565b9687558b968501610899565b9091508190610887565b634e487b7160e01b8a52604160045260248afd5b60405162461bcd60e51b8152600481018790526011602482015270496e76616c6964207369676e617475726560781b6044820152606490fd5b9050151538610699565b6040513d8b823e3d90fd5b601b0160ff81111561065b57634e487b7160e01b8d52601160045260248dfd5b634e487b7160e01b8d52604160045260248dfd5b634e487b7160e01b8c52604160045260248cfd5b60405162461bcd60e51b815260048101879052601860248201527f496e76616c6964207369676e6174757265206c656e67746800000000000000006044820152606490fd5b60405162461bcd60e51b815260048101879052601960248201527f43726564656e7469616c20616c726561647920697373756564000000000000006044820152606490fd5b506020602491604051928380926328e40a8d60e11b82523360048301525afa801561091357610581918a91610a26575b50610577565b610a3e915060203d81116103d3576103c581836114c8565b38610a20565b8580fd5b5034610104576020366003190112610104576040608091600435815260076020522060018060a01b03908181541691600182015416906003600282015491015491604051938452602084015260408301526060820152f35b5034610104576020366003190112610104576020906001600160a01b039060409082610aca61141c565b16815260058452205416604051908152f35b503461010457602036600319011261010457610af661141c565b3033148015610b61575b15610b235781546001600160a01b0319166001600160a01b039190911617815580f35b60405162461bcd60e51b815260206004820152601660248201527543616e6e6f742075706461746520726567697374727960501b6044820152606490fd5b5081546001600160a01b031615610b00565b50346101045761010036600319011261010457610b8e61141c565b610b96611432565b60443567ffffffffffffffff811161031e57610bb69036906004016115d0565b9160a43567ffffffffffffffff8111610a4457610bd79036906004016115d0565b67ffffffffffffffff60c435116113695736602360c4350112156113695767ffffffffffffffff60c43560040135116113695736602460c4356004013560051b60c4350101116113695760e43567ffffffffffffffff811161136557610c419036906004016115d0565b9092610c576001600160a01b0389161515611662565b610c6b6001600160a01b0386161515611662565b8615611327576001546001600160a01b03169182156112e2576084358a52600460205260ff60408b2054166112a857600360c435600401351061126c576064351561122f576064358a52600360205260ff60408b205416156111ea576064358a52600660205260408a2094610d19600460405197610ce889611482565b8054895260018101546001600160a01b031660208a0152600281015460408a0152600381015460608a0152016114ea565b608087015260208601516001600160a01b038881169116036111b25760c4356004013515611128576001600160a01b038a1660c435602401350361117a5760c4356004013560011015611128576001600160a01b03871660c435604401350361113c5760c4356004013560021015611128576040860151606460c4350135036110eb57610e46610e59928b610df68a948f97610de7906040519b610dbc8d611482565b6084358d526001600160a01b0398891660208e019081529590981660408d0190815294973691611727565b9360608b019485523691611727565b608089019081526040805163b5fcd82d60e01b81526004810191909152985160448a015293516001600160a01b0390811660648a015290511660848801525160a060a488015260e4870190611590565b90518582036043190160c4870152611590565b838103600319016024850152600460c43501358082529092906001600160fb1b031061032d57838092602082819660c4356004013560051b602460c435018483013760c4356004013560051b010301925af19081156110e05787916110c1575b501561107c576084358652600460205260408620600160ff19825416179055604081015160405180608081011067ffffffffffffffff608083011117611068579260406060937fa9b682866d51c20e740cce8b94c552ea749d36aa464d33272614056ac12874b696938660808a9801845260018060a01b038b16815260038c602083019360018060a01b0388168552868401908152868a85019242845260843581526007602052209360018060a01b03905116946001600160601b0360a01b9586865416178555600185019060018060a01b03905116868254161790555160028401555191015560018060a01b038a168b526002602052828b20600160ff198254161790556005602052828b209060018060a01b0385169082541617905501516040519060018060a01b0383168252602082015242604082015260018060a01b03881690606435907f6a828c47a7387b83aca5ec35a804cb1300717c1cbb5044a8efb51f0749afbca58660843592a4604051938492604084528160408501528484013781860183018890524260208301526001600160a01b03908116961694601f01601f19168101030190a380f35b634e487b7160e01b88526041600452602488fd5b60405162461bcd60e51b815260206004820152601960248201527f50726f6f6620766572696669636174696f6e206661696c6564000000000000006044820152606490fd5b6110da915060203d6020116103d3576103c581836114c8565b38610eb9565b6040513d89823e3d90fd5b60405162461bcd60e51b81526020600482015260156024820152740a6eadadac2e4f240d0c2e6d040dad2e6dac2e8c6d605b1b6044820152606490fd5b634e487b7160e01b8b52603260045260248bfd5b60405162461bcd60e51b8152602060048201526016602482015275082eac8d2e8dee440d2dce0eae840dad2e6dac2e8c6d60531b6044820152606490fd5b60405162461bcd60e51b815260206004820152601060248201526f0a0e4ded4cac6e840dad2e6dac2e8c6d60831b6044820152606490fd5b60405162461bcd60e51b815260206004820152601060248201526f082eac8d2e8dee440dad2e6dac2e8c6d60831b6044820152606490fd5b60405162461bcd60e51b815260206004820152601760248201527f43726564656e7469616c206e6f7420616e63686f7265640000000000000000006044820152606490fd5b60405162461bcd60e51b8152602060048201526015602482015274125b9d985b1a590818dc9959195b9d1a585b081a59605a1b6044820152606490fd5b60405162461bcd60e51b8152602060048201526014602482015273496e76616c69642070726f6f6620696e7075747360601b6044820152606490fd5b60405162461bcd60e51b8152602060048201526012602482015271141c9bdbd988185b1c9958591e481d5cd95960721b6044820152606490fd5b60405162461bcd60e51b815260206004820152601760248201527f5665726966696572206e6f7420636f6e666967757265640000000000000000006044820152606490fd5b60405162461bcd60e51b81526020600482015260166024820152755374617475732063616e6e6f7420626520656d70747960501b6044820152606490fd5b8780fd5b8680fd5b503461010457602036600319011261010457604090600435815260066020522080546101d460018060a01b03600184015416926002810154906113b76004600383015492016114ea565b91604051958695865260208601526040850152606084015260a0608084015260a0830190611590565b90503461032d57602036600319011261032d5760209160ff906040906001600160a01b0361140c61141c565b1681526002855220541615158152f35b600435906001600160a01b03821682036103e557565b602435906001600160a01b03821682036103e557565b90600182811c92168015611478575b602083101461146257565b634e487b7160e01b600052602260045260246000fd5b91607f1691611457565b60a0810190811067ffffffffffffffff82111761149e57604052565b634e487b7160e01b600052604160045260246000fd5b67ffffffffffffffff811161149e57604052565b90601f8019910116810190811067ffffffffffffffff82111761149e57604052565b90604051918260008254926114fe84611448565b90818452600194858116908160001461156d575060011461152a575b5050611528925003836114c8565b565b9093915060005260209081600020936000915b8183106115555750506115289350820101388061151a565b8554888401850152948501948794509183019161153d565b91505061152894506020925060ff191682840152151560051b820101388061151a565b919082519283825260005b8481106115bc575050826000602080949584010152601f8019910116010190565b60208183018101518483018201520161159b565b9181601f840112156103e55782359167ffffffffffffffff83116103e557602083818601950101116103e557565b908160209103126103e5575180151581036103e55790565b1561161d57565b60405162461bcd60e51b815260206004820152601760248201527f4e6f7420616e20617070726f7665642061756469746f720000000000000000006044820152606490fd5b1561166957565b60405162461bcd60e51b815260206004820152600f60248201526e496e76616c6964206164647265737360881b6044820152606490fd5b156116a757565b60405162461bcd60e51b8152602060048201526015602482015274125b9d985b1a590818dc9959195b9d1a585b081251605a1b6044820152606490fd5b156116eb57565b60405162461bcd60e51b8152602060048201526014602482015273092dcecc2d8d2c840e6eadadac2e4f240d0c2e6d60631b6044820152606490fd5b92919267ffffffffffffffff821161149e5760405191611751601f8201601f1916602001846114c8565b8294818452818301116103e557828160209384600096013701015256fea26469706673582212206af215148641743cd563f6e7d7255608861c900491a7c33b1e96765ccdcd4ed864736f6c63430008140033",
  "linkReferences": {},
  "deployedLinkReferences": {}
}